:100000000C9456000C9475000C9475000C947500BB
:100010000C9475000C9475000C9475000C9475008C
:100020000C9475000C9475000C9475000C9475007C
:100030000C9477000C9475000C9475000C9475006A
:100040000C9475000C9475000C9493070C940B0899
:100050000C9475000C9499050C9475000C94750023
:100060000C9475000C9475000C9475000C9475003C
:100070000C9475000C9475000C9475000C9475002C
:100080000C94DB050C9475000C9475000C947500B1
:100090000C9475007E6E7F620C37260C37120C377D
:1000A0000E0C37060C37020C37000C3611241FBE1D
:1000B000CFEFD0E1DEBFCDBF12E0A0E0B1E0ECE3D6
:1000C000FAE100E00BBF02C007900D92AC32B1071D
:1000D000D9F725E0ACE2B2E001C01D92A73CB2071F
:1000E000E1F70E941A0B0C941C0D0C9400001F9257
:1000F0000F920FB60F9211242F933F934F935F935C
:100100006F937F938F939F93AF9320912C023091A5
:100110002D0240912E0250912F0260913002709179
:1001200031028091320290913302A1E00E94070DCA
:1001300020932C0230932D0240932E0250932F02D5
:1001400060933002709331028093320290933302B5
:10015000AF919F918F917F916F915F914F913F915F
:100160002F910F900FBE0F901F901895E1E8F0E0CF
:1001700080818A60808387E08093890080ED80930E
:100180008800EFE6F0E08081826080830895F89433
:1001900020912C0230912D0240912E0250912F027D
:1001A000609130027091310280913202909133025D
:1001B00078940895FC014681611119C0A281B38130
:1001C0005C9121E030E0C90101C0880F4A95EAF74F
:1001D000852B8C93A081B1818C91068002C0220F67
:1001E000331F0A94E2F7209528232C930895019059
:1001F000F081E02D208181E090E001C0880F4A95D8
:10020000EAF7822B80830895CF93DF93DC01179662
:10021000ED91FC9118978785883021F0803109F4A1
:1002200078C03CC1613049F108F444C0633009F042
:1002300035C1A081B1813C9181E090E0BC01008496
:1002400002C0660F771F0A94E2F7AC01018402C076
:10025000440F551F0A94E2F7462B432B9C0104845C
:1002600002C0220F331F0A94E2F7242B058402C038
:10027000880F991F0A94E2F749C0A081B1813C918F
:1002800081E090E0BC01008402C0660F771F0A94F1
:10029000E2F7AC01018402C0440F551F0A94E2F753
:1002A000462B432B9C01048402C0220F331F0A9467
:1002B000E2F725C0A081B1813C9181E090E0BC01D2
:1002C000008402C0660F771F0A94E2F7AC01018434
:1002D00002C0440F551F0A94E2F7462B242F232B0C
:1002E000AC01048402C0440F551F0A94E2F7422B6C
:1002F0009C01058402C0220F331F0A94E2F7242BCD
:10030000068402C0880F991F0A94E2F7822B8C930F
:10031000C5C0623009F480C06330D1F16111BEC044
:10032000C081D181988121E030E0B901008402C010
:10033000660F771F0A94E2F7A901048402C0440FF4
:10034000551F0A94E2F7862F842B892B88831796F2
:10035000ED91FC911897A281B3819C91B90105841C
:1003600002C0660F771F0A94E2F7A901068402C053
:10037000440F551F0A94E2F7862F842B892B0284A1
:1003800002C0220F331F0A94E2F7282B2C9386C059
:10039000C081D181988121E030E0B901008402C0A0
:1003A000660F771F0A94E2F7A901048402C0440F84
:1003B000551F0A94E2F7862F842B892B8883179682
:1003C000ED91FC911897C281D3819881B901058480
:1003D00002C0660F771F0A94E2F7A901028402C0E7
:1003E000440F551F0A94E2F7862F842B892B8883AC
:1003F00017960D90BC91A02D1296ED91FC9113973C
:1004000080811E960C9002C0220F331F0A94E2F7DF
:1004100020952823208342C0C081D181988121E08A
:1004200030E0B901018402C0660F771F0A94E2F739
:10043000A901048402C0440F551F0A94E2F7862FD5
:10044000842B892B88831796ED91FC911897C28194
:10045000D3819881B901068402C0660F771F0A9480
:10046000E2F7A901028402C0440F551F0A94E2F783
:10047000862F842B892B038402C0220F331F0A94FA
:10048000E2F7282B28831796ED91FC9118970680A8
:10049000F781E02D84E690E091838083DF91CF9116
:1004A0000895DC011796ED91FC9118970480F58171
:1004B000E02D718360830895DC011296ED91FC912B
:1004C000139716963C91208181E090E001C0880F3F
:1004D0003A95EAF7613011F4822B02C080958223AD
:1004E00080830895DC011496ED91FC91159720818D
:1004F00030E0F90116960C9002C0F595E7950A9444
:10050000E2F7CF01817008950F931F93CF93DF938C
:100510008C01D62FC091340260E00E94DA0085E0A1
:10052000C89FF0011124EB5CFD4F6D2F70E0605F00
:100530007247738362831183008314828091340233
:100540008F5F80933402DF91CF911F910F910895B7
:10055000EF92FF920F931F93CF93DF9309E312E083
:10056000C5E3D2E0E12CF12C8091340290E0E81652
:10057000F90608F044C0888199810E947202813096
:10058000C9F4F8019081911115C080831F928F9357
:100590008F938A819B811F921F929F938F930E94BA
:1005A00014058DB79EB707960FB6F8949EBF0FBE81
:1005B0008DBF1EC0888199810E947202811118C06E
:1005C000F80180818130A1F410821F921F928F93D5
:1005D0008A819B811F921F929F938F930E94140583
:1005E0008DB79EB707960FB6F8949EBF0FBE8DBF0E
:1005F0009FEFE91AF90A0B5F1F4F2596B5CFDF91E0
:10060000CF911F910F91FF90EF90089508950C9452
:100610000A06CF92DF92EF92FF920F931F93CF9330
:10062000DF93CDB7DEB7A4970FB6F894DEBF0FBE49
:10063000CDBFFC01C080D180E280F380F0E7CF160F
:10064000FDE8DF06E104F104A1F58C01FC01458120
:1006500050E0BC016A5F7F4FCE014C960E94130DA3
:10066000BE01615F7F4FCE014A960E944906C98252
:10067000DA82EB82FC829D819E7F92609D83813035
:1006800061F41A891F5F412F50E0BE016F5E7F4FFA
:10069000CE0107960E94130D05C0F80196819F8335
:1006A000888712E01E83CE0101960E94DA0981E05C
:1006B00001C080E0A4960FB6F894DEBF0FBECDBF98
:1006C000DF91CF911F910F91FF90EF90DF90CF902E
:1006D00008958536910530F48233910528F482E33C
:1006E00090E002C084E690E044E1489F9001499F79
:1006F000300D112430938900209388000895E8E894
:10070000F0E080ED97E09183808324E535E885E48F
:1007100091E02150304080409040D9F700C000C0A7
:10072000000088EE93E0918380832FEF37EA81E623
:10073000215030408040E1F700C000000895CF9381
:10074000DF93EC0161E00E94DA00EF81F885A0817F
:10075000B1819C9121E030E0B901048402C0660FB0
:10076000771F0A94E2F7A901018402C0440F551FC4
:100770000A94E2F7862F842B892B8C93EF81F885DE
:10078000A281B3818C91A901038402C0440F551F3B
:100790000A94E2F7068402C0220F331F0A94E2F79C
:1007A000242B282B2C93EF81F8850680F781E02DF0
:1007B00080E29EE49183808388EE93E090938900A9
:1007C00080938800DF91CF910895FF920F931F933C
:1007D000CF93DF93FC014081518162817381433566
:1007E0005D486105710509F076C0FC01F680C09195
:1007F00067020F2D10E0CF1560F5D0E0C017D107CC
:1008000008F065C0BE0180E090E00E94EA0B29EC90
:1008100038EC48E45EE30E94780C20E030E048E4E5
:1008200052E40E944F0B20E030E040E05FE30E9482
:100830004F0B0E94BB0BCB010E9469032FEF89EF86
:1008400090E0215080409040E1F700C000002196E8
:10085000D5CFFC1628F5D0E00C171D07C0F5BE015A
:1008600080E090E00E94EA0B29EC38EC48E45EE37B
:100870000E94780C20E030E048E452E40E944F0BE4
:100880000E94BB0BCB010E946903EFEFF9EF20E060
:10089000E150F0402040E1F700C000002197DCCF9C
:1008A000B801110F880B990B0E94EC0B29EC38EC66
:1008B00048E45EE30E94780C20E030E048E452E433
:1008C0000E944F0B0E94BB0BCB010E946903F09268
:1008D000670281E001C080E0DF91CF911F910F910D
:1008E000FF9008959B01AC0183E0220F331F441F4A
:1008F000551F8A95D1F760E074E284EF90E00E9482
:10090000E50CBA01A9014150510961097109BB27E0
:10091000A72F962F852F8093C5004093C400E0EC4D
:10092000F0E0808182608083E1ECF0E08081806192
:100930008083699A689880818860808380818B7FBA
:100940008083E2ECF0E080818F77808380818F7BF1
:10095000808380818F7D808380818F7E8083808172
:10096000877F80838081877F80838081846080838C
:1009700080818260808308959091C00095FFFCCFB4
:100980008093C60008958091C00087FFFCCF8091BE
:10099000C6000895CF93DF93CDB7DEB729970FB682
:1009A000F894DEBF0FBECDBF86E00E94550789E0F8
:1009B000E3E2F2E0DE01119601900D928A95E1F7F3
:1009C000BE016F5F7F4F80E00E94710829960FB6CD
:1009D000F894DEBF0FBECDBFDF91CF9108951F9376
:1009E000CF93DF93CDB7DEB729970FB6F894DEBF6C
:1009F0000FBECDBF84E00E945507182FBE016F5F68
:100A00007F4F89E0FB0111928A95E9F780E00E940F
:100A10007108812F29960FB6F894DEBF0FBECDBFA7
:100A2000DF91CF911F910895CF93DF93CDB7DEB7BC
:100A30002E970FB6F894DEBF0FBECDBF9F894B89AE
:100A40005C896D897E8949835A836B837C838D8120
:100A50008E7F82608D839E83DE0158969E01295F82
:100A60003F4FF9018E2F821B891720F48C9112962B
:100A70008193F8CFCE0101960E94DA092E960FB627
:100A8000F894DEBF0FBECDBFDF91CF910895FC017A
:100A900092E060E070E02381492F50E030E02E5F6B
:100AA0003F4F2417350744F0DF01A40FB51F8C9189
:100AB000680F711D9F5FEFCF862F80950895CF93AC
:100AC000DF93D901EEEDF5E03C91361748F431970C
:100AD00061F1CFE8D1E02197F1F700C00000F4CF39
:100AE00020E030E070E0FC012617370750F4E20FF9
:100AF000F31FDA01A20FB31FAC91A0832F5F3F4F0A
:100B0000F2CF20812F3F11F082E010C021812F3FD2
:100B1000D9F761507109FC01E60FF71FC0810E94EF
:100B20004705C813F1CF81E001C083E0DF91CF9189
:100B300008951F920F920FB60F9211240BB60F92C9
:100B40008F93EF93FF938091C600E0916903F0E0EB
:100B5000E659FC4F8083809169038F3F29F0809193
:100B600069038F5F8093690380916903813031F459
:100B700080916A038F3F11F010926903809169039D
:100B8000833079F480916A038F3F59F480916B032D
:100B90008F3F39F480916C038F3F19F482E080938A
:100BA0006903FF91EF918F910F900BBE0F900FBED5
:100BB0000F901F9018951F920F920FB60F9211244D
:100BC0000BB60F928F93EF93FF93E0916802F0E0E2
:100BD0008091CE00E759FD4F8083809168028F3F5E
:100BE00029F0809168028F5F80936802809168028B
:100BF000813031F4809169028F3F11F010926802C8
:100C0000FF91EF918F910F900BBE0F900FBE0F9041
:100C10001F9018951092C50082E28093C400E0EC0A
:100C2000F0E0808182608083E1ECF0E08081886088
:100C30008083808180618083808180688083689ADE
:100C4000699A1092690308951092CD0082E2809310
:100C5000CC00E8ECF0E0808182608083E9ECF0E099
:100C600080818860808380818061808380818068CA
:100C70008083529A539A6A9A729A109268020895DF
:100C80008091C80086FFFCCF109268020895729A86
:100C90000895DF92EF92FF920F931F93CF93DF930C
:100CA000EC017B018B8194E0D92ED80E8FEF8883E5
:100CB00089830D2D10E0015011090C0F1D1FCE016D
:100CC0000E944705F80180831AE00C2F8091C10033
:100CD0008F7E8093C100699A68988091C100886076
:100CE0008093C100EC2FFD2F8E2F801B8D1548F4B3
:100CF00080819091C00095FFFCCF8093C600319613
:100D0000F3CF8091C00086FFFCCF109269036998F1
:100D1000689A8091C100877F8093C1008091C10053
:100D200080618093C1008A818E3F11F481E013C0FD
:100D30008C81823019F46E816A5F01C066E029E619
:100D400033E04AE653E0C7010E945F05813071F34A
:100D5000115009F0BBCFDF91CF911F910F91FF9000
:100D6000EF90DF900895DF92EF92FF920F931F9321
:100D7000CF93DF93EC017B018B8194E0D92ED80EC9
:100D80008FEF888389830D2D10E0015011090C0F1E
:100D90001D1FCE010E944705F80180830E9447066F
:100DA0009C2FEC2FFD2F8E2F891B8D1548F48081F1
:100DB0002091C80025FFFCCF8093CE003196F3CF61
:100DC0000E9440068A818E3FA9F08C81823019F4FE
:100DD0006E816A5F01C066E028E632E049E652E0D3
:100DE000C701DF91CF911F910F91FF90EF90DF909E
:100DF0000C945F0581E0DF91CF911F910F91FF90DF
:100E0000EF90DF90089580916A04882311F08FEFAE
:100E1000089590E080E09093ED002091EF00207C19
:100E200029F08F5F905F8F30B1F7F1CF0895883050
:100E300080F44091DE0021E030E0B90102C0660F8D
:100E4000771F8A95E2F7CB01809584238093DE009B
:100E500008953091DF0028EF280F81E090E001C075
:100E6000880F2A95EAF7809583238093DF00089501
:100E7000883068F49091DE0021E030E001C0220F5C
:100E80008A95EAF7892F822B8093DE00089590914E
:100E9000DF00885021E030E001C0220F8A95EAF798
:100EA000892F822B8093DF000895883008F039C0A5
:100EB0009091D80091609093D80023E0829FC00168
:100EC0001124FC01EC56FF4FE491E093E200FC0199
:100ED000EB56FF4FE491E093E3008A569F4FFC01ED
:100EE00084918093E4001092DA0080EB8093DB0021
:100EF00087EC8093E5008FEF0E94230841EE54E0D9
:100F000060E181EC95E00E94B30A4BE654E068E0B2
:100F10008BED94E00E94B30A82E08093D80081E0D8
:100F2000089580E008951F920F920FB60F9211243A
:100F30000BB60F922F933F934F935F936F937F93D3
:100F40008F939F93AF93BF93CF93DF93EF93FF93D1
:100F50008091EC00807F803F09F458C0C091ED0083
:100F60008091EC00807F8093ED00D091EC00809127
:100F7000EE0086FF36C08091EE001092EE001092D7
:100F8000EF008BED94E00E94F60A009761F00E945A
:100F900052098BED94E00E940B0B8091EF0080646E
:100FA0008093EF0007C08D2F82958F700E941707E6
:100FB00010926A04C093ED00FF91EF91DF91CF9101
:100FC000BF91AF919F918F917F916F915F914F9161
:100FD0003F912F910F900BBE0F900FBE0F901F905F
:100FE000189581EC95E00E94D20A009731F00E949A
:100FF0000B0A81EC95E00E94E70A8091EE001092C6
:10100000EE008091EF0080718068CACF8091DA0095
:101010008093DA00D1CF1F920F920FB60F92112456
:101020000F900FBE0F901F90189581EC95E00E94D5
:10103000BE0A91E0892708958BED94E00E94C70ACB
:1010400091E089270895CF938F30C0F08F3F09F04A
:1010500046C01092DF001092DE0080E08093ED0029
:101060009091EF001092EF009091EE001092EE0040
:10107000805F803F99F781E0CF91089590E8909349
:10108000D8009091D90093FDFCCF1092D800909198
:10109000D900C92FC47092FDFACF982F9295907FF6
:1010A0009093ED009091EE001092EE001092EF0000
:1010B0000E9417078091ED00C093ED009091EF0022
:1010C0009093EF00C05FC03FB9F78093ED0082E0DE
:1010D0008093D8008091D90082FFFCCFCCCF80E0F4
:1010E000CBCFCF93FB018F3008F0DAC090E890931C
:1010F000D8009091D90093FDFCCF1092D800909128
:10110000D900C92FC47092FDFACF982F9295907F85
:101110009093ED001092EE001092EF0090859C707D
:101120009C3009F08FC09081990F990F990F90937F
:10113000F0004081518162817381A5E076956795C9
:1011400057954795AA95D1F74093F1004081518179
:1011500062817381BDE07695679557954795BA95FD
:10116000D1F74093F200408151816281738195E112
:1011700076956795579547959A95D1F74093F300E3
:10118000248198E0299F9001112421602093F4008C
:10119000448155816681778125E0769567955795DD
:1011A00047952A95D1F74093F50044815581668192
:1011B00077813DE076956795579547953A95D1F7B4
:1011C0004093F6004481558166817781A5E176954B
:1011D000679557954795AA95D1F74093F700909159
:1011E000EF0090619093EF00908591FF0DC090917A
:1011F000F40094609093F400908590FF05C0909166
:10120000F00094609093F0009091EF0090689093BC
:10121000EF000E9438078091ED00C093ED0090919F
:10122000EF009093EF00C05FC03FB9F78093ED00EF
:1012300082E08093D8008091D90082FFFCCF81E0CA
:10124000CF9108951092F0001092F1009081929544
:10125000990F907E9093F2002081318143E0369582
:1012600027954A95E1F72093F30090859C70A9F0AB
:1012700091E09093F4001092F50094819295990F6B
:10128000907E9093F6002481358193E036952795E2
:101290009A95E1F72093F700A7CF1092F400EBCFD7
:1012A00080E0CECFCF93DF9300D000D0CDB7DEB7B4
:1012B000FC0185818093EF00848181FF32C08091A1
:1012C000EF0080618093EF008081880F880F880F86
:1012D0008093F00080819181A281B38133E0880FF7
:1012E000991FAA1FBB1F3A95D1F789839A83AB83B5
:1012F000BC838A818093F1008B818093F2008C8182
:101300008093F300848180FF1EC08091F000846090
:101310008093F0000F900F900F900F90DF91CF917E
:1013200008951092F0001092F10080818295880F4C
:10133000807E8093F2008081918123E0969587954D
:101340002A95E1F7DDCF9F012A5F3F4FD9019581B3
:101350008A2F821B8917F0F68D918093FA00F7CFC0
:101360000F931F93CF938C010E940307C82F8F30D8
:10137000F8F48295807F8093ED008091EE001092CA
:10138000EE00C8010E9452098C2F0E9438078FB7C7
:10139000F89491E090936A048FBF8091EF0080648D
:1013A0008093EF0081E08C0FCF911F910F910895F2
:1013B00080E0FACF1F93CF93DF93EC0180916A0412
:1013C0008823E1F08BED94E00E94D20ADC01892BA6
:1013D000D9F09EE0FE0101900D929A95E1F71FB7BA
:1013E000F89480E090916A04992329F08BED94E0C1
:1013F0000E94E70A81E01FBF81110BC0CE01DF917F
:10140000CF911F910C94B00980E0DF91CF911F9193
:10141000089581E0FACFCF93DF9300D000D0CDB70D
:10142000DEB7FC019091EF00892F8F708583848156
:1014300094FF2CC09091F00099839091F1009A83D1
:101440009091F2009B839091F3009C8349815A8193
:101450006B817C8193E076956795579547959A9532
:10146000D1F7408351836283738382608483909138
:10147000F000848192FF1EC08160848381E00F9020
:101480000F900F900F90DF91CF9108959091F200FF
:101490009295969597704091F30028E0429FA001A5
:1014A0001124492B60E070E0408351836283738391
:1014B0008D7FDCCF8E7F84839F012A5F3F4FD901D0
:1014C00095818A2F821B8917C8F68091FA008D9327
:1014D000F7CF0F931F93CF938C010E9415088111B2
:1014E00005C080E0CF911F910F91089580E0C0E08A
:1014F0008093ED009091EE0095FF16C08091EE0074
:101500001092EE00C8010E940B0A182F8C2F0E9427
:1015100038078091EF00807180688093EF0011237D
:1015200001F381E08C0FDECFCF5F805FCF3001F71A
:10153000D8CFCF93DF93EC0181EC95E00E94F60ABF
:10154000FC01892B71F09EE0DE0101900D929A95CD
:10155000E1F781EC95E00E940B0B8FEFDF91CF91CB
:10156000089580E0FBCFFC018FB7F894628351832C
:1015700040831482158213828FBF08952FB7F89489
:10158000FC0193812FBF81E0911180E008953FB766
:10159000F894FC01238192813FBF81E0291708F470
:1015A00080E00895CF93DF93EC010E94C70A811178
:1015B0000BC02C81888199813EE0239F800D911D75
:1015C0001124DF91CF91089580E090E0FACFFC01E3
:1015D0009FB7F89483818F5F838384818F5F848337
:1015E0002281821708F014829FBF0895CF93DF9362
:1015F000EC010E94BE0A81110BC02D818881998166
:101600003EE0239F800D911D1124DF91CF9108951D
:1016100080E090E0FACFFC019FB7F894838181507D
:10162000838385818F5F85832281821708F01582ED
:101630009FBF0895CF93DF93CDB7DEB72E970FB638
:10164000F894DEBF0FBECDBF78940E94070361E01F
:1016500086E391E00E94840262E08DE291E00E94C4
:10166000840263E08BEA91E00E94840264E084EBF0
:1016700091E00E9484020E94CA040E94A8020E9473
:1016800015088823D1F3CE0101960E94990A882378
:10169000A1F3CE0101960E940903EFCF5058BB275A
:1016A000AA270E94660B0C943E0C0E94300C38F066
:1016B0000E94370C20F039F49F3F19F426F40C9463
:1016C0002D0C0EF4E095E7FB0C94270CE92F0E94FB
:1016D0004F0C58F3BA17620773078407950720F079
:1016E00079F4A6F50C94710C0EF4E0950B2EBA2F3C
:1016F000A02D0B01B90190010C01CA01A001112418
:10170000FF27591B99F0593F50F4503E68F11A16C3
:10171000F040A22F232F342F4427585FF3CF469554
:1017200037952795A795F0405395C9F77EF41F1676
:10173000BA0B620B730B840BBAF09150A1F0FF0F40
:10174000BB1F661F771F881FC2F70EC0BA0F621F2C
:10175000731F841F48F4879577956795B795F7951C
:101760009E3F08F0B0CF9395880F08F09927EE0FB1
:101770009795879508950E94570C88F09F5798F089
:10178000B92F9927B751B0F0E1F0660F771F881F86
:10179000991F1AF0BA95C9F714C0B13091F00E94A0
:1017A000710CB1E008950C94710C672F782F882785
:1017B000B85F39F0B93FCCF3869577956795B395C7
:1017C000D9F73EF490958095709561957F4F8F4F36
:1017D0009F4F0895E89409C097FB3EF4909580953B
:1017E000709561957F4F8F4F9F4F9923A9F0F92FE7
:1017F00096E9BB279395F695879577956795B79565
:10180000F111F8CFFAF4BB0F11F460FF1BC06F5F4A
:101810007F4F8F4F9F4F16C0882311F096E911C05C
:10182000772321F09EE8872F762F05C0662371F07D
:1018300096E8862F70E060E02AF09A95660F771F91
:10184000881FDAF7880F9695879597F9089597F985
:101850009F6780E870E060E008959FEF80EC089556
:1018600000240A941616170618060906089500247F
:101870000A9412161306140605060895092E0394F9
:10188000000C11F4882352F0BB0F40F4BF2B11F46D
:1018900060FF04C06F5F7F4F8F4F9F4F089557FDCC
:1018A0009058440F551F59F05F3F71F04795880FCE
:1018B00097FB991F61F09F3F79F087950895121665
:1018C00013061406551FF2CF4695F1DF08C0161611
:1018D00017061806991FF1CF8695710561050894C2
:1018E0000895E894BB2766277727CB0197F90895D9
:1018F0000E948B0C0C943E0C0E94300C38F00E941D
:10190000370C20F0952311F00C94270C0C942D0C1F
:1019100011240C94720C0E944F0C70F3959FC1F32C
:10192000950F50E0551F629FF001729FBB27F00D8D
:10193000B11D639FAA27F00DB11DAA1F649F6627E2
:10194000B00DA11D661F829F2227B00DA11D621F31
:10195000739FB00DA11D621F839FA00D611D221FEB
:10196000749F3327A00D611D231F849F600D211DCF
:10197000822F762F6A2F11249F5750409AF0F1F052
:1019800088234AF0EE0FFF1FBB1F661F771F881FBB
:1019900091505040A9F79E3F510580F00C94270CC0
:1019A0000C94720C5F3FE4F3983ED4F386957795E0
:1019B0006795B795F795E7959F5FC1F7FE2B880F61
:1019C000911D9695879597F90895A1E21A2EAA1B65
:1019D000BB1BFD010DC0AA1FBB1FEE1FFF1FA217DF
:1019E000B307E407F50720F0A21BB30BE40BF50BDC
:1019F000661F771F881F991F1A9469F76095709565
:101A0000809590959B01AC01BD01CF010895002404
:101A1000A7FD00942A0F301D401D501D601D701D34
:101A2000801D901D0895FB01DC0102C001900D9204
:0C1A300041505040D8F70895F894FFCFC3
:101A3C00330034003200020000300031002F00036C
:101A4C000000300031002F000400002D002E002C6F
:101A5C00000300002D002E002C000200002700289F
:101A6C00002600070000270028002600060000279B
:101A7C00002800260005000027002800260004008E
:101A8C00002700280026000300002700280026005D
:101A9C000200002700280026000100002700280073
:101AAC002600000000240025002300070302240068
:101ABC002500230005130224002500230004F30154
:101ACC00240025002300030000240025002300022D
:101ADC00000024002500230000000021002200202B
:101AEC000007000021002200200006000021002237
:101AFC00002000050000210022002000040000212D
:101B0C00002200200003000021002200200002001F
:101B1C0000210022002000010000210022002000F2
:101B2C00000000B0000000B3000000060300000538
:101B3C0000010844000000470000000603000005F7
:101B4C000001088000810088008600000103040762
:0C1B5C00000110008D000000FF00000CD4
:00000001FF
